:020000040000FA
:04000000E1EF00F03C
:08000800056ED8CF06F0E0CF31
:1000100007F00001E9CF0DF0EACF08F0E1CF09F0D9
:10002000E2CF0AF0D9CF0BF0DACF0CF0F3CF14F017
:10003000F4CF15F0FACF16F000C00FF001C010F0A9
:1000400002C011F003C012F004C013F0F2AA2CEFAA
:1000500000F0F2B473EF00F00FC000F010C001F038
:1000600011C002F012C003F013C004F00E8E0DC0D8
:10007000E9FF08C0EAFF09C0E1FF0AC0E2FF0BC0C8
:10008000D9FF0CC0DAFF14C0F3FF15C0F4FF16C08F
:10009000FAFF055007C0E0FF06C0D8FF10001F5050
:1000A000000A05E0010A0AE0020A0FE015D0929466
:1000B000898492968996929889980ED09294899480
:1000C000929689869298899807D09294899492966C
:1000D00089969298898800D01F2A1F500308D8A0BB
:1000E0001F6A82EF00F0EC0ED76E780ED66E1B2AD8
:1000F000D8B41C2A1B50020805E11C5203E11C6AFB
:100100001B6ACDD7F2942CEF00F025502702F3CFD5
:1001100001F0F4CF00F02802F35000262650270209
:10012000F3500020026EA8EF00F0F2CF22F0F29E12
:1001300021C0A9FFA69CA69EA680A85022BEF28E32
:10014000246E266A24C025F0010E286E276ADDD7AA
:1001500002C026F001C025F0010E2124276EF2CF47
:1001600028F0F29E27C0A9FFA69CA69EA680A850B4
:1001700028BEF28E2524016E000E2620036E01504B
:10018000016E0350026E07EF01F019501A5C16E081
:1001900019C01AF0A96A19C0A8FFA69CA69EA68439
:1001A000F2CF00F0F29E0F01550EA76EAA0EA76EB9
:1001B000A682A6B2FED7A6940050F21200010CEF60
:1001C00001F0F86AD09E0D8EEA6AE96AC150C00B50
:1001D0000F09C16E070EB46E18901892196A1A6A48
:1001E00018941B6A1C6A1D6A1E6A1F6A206A700EB8
:1001F000D36ED350C00EF212F28A810ED56EEC0E81
:10020000D76E780ED66EA50ECD6E216A8ED701C040
:1002100019F019C01AF0B9D7928280A210D0928238
:10022000000E80B2010E216E000E18B4010E215C8A
:1002300005E09282189480B21884192A01D018948B
:100240001950010A09E0030A08E0010A07E0070A59
:1002500006E0010A05E005D006D005D004D003D0A1
:0A02600002D0010E196ED7D703007B
:020000040030CA
:0E00000000091E1E000381000FC00FE00F401C
:00000001FF
;PIC18F4520
